{
  "_format": "hh-sol-artifact-1",
  "contractName": "SecureIPFSMarketplace",
  "sourceName": "contracts/SecureIPFSMarketplace.sol",
  "abi": [
    {
      "inputs": [],
      "stateMutability": "nonpayable",
      "type": "constructor"
    },
    {
      "inputs": [
        {
          "internalType": "address",
          "name": "sender",
          "type": "address"
        },
        {
          "internalType": "uint256",
          "name": "balance",
          "type": "uint256"
        },
        {
          "internalType": "uint256",
          "name": "needed",
          "type": "uint256"
        },
        {
          "internalType": "uint256",
          "name": "tokenId",
          "type": "uint256"
        }
      ],
      "name": "ERC1155InsufficientBalance",
      "type": "error"
    },
    {
      "inputs": [
        {
          "internalType": "address",
          "name": "approver",
          "type": "address"
        }
      ],
      "name": "ERC1155InvalidApprover",
      "type": "error"
    },
    {
      "inputs": [
        {
          "internalType": "uint256",
          "name": "idsLength",
          "type": "uint256"
        },
        {
          "internalType": "uint256",
          "name": "valuesLength",
          "type": "uint256"
        }
      ],
      "name": "ERC1155InvalidArrayLength",
      "type": "error"
    },
    {
      "inputs": [
        {
          "internalType": "address",
          "name": "operator",
          "type": "address"
        }
      ],
      "name": "ERC1155InvalidOperator",
      "type": "error"
    },
    {
      "inputs": [
        {
          "internalType": "address",
          "name": "receiver",
          "type": "address"
        }
      ],
      "name": "ERC1155InvalidReceiver",
      "type": "error"
    },
    {
      "inputs": [
        {
          "internalType": "address",
          "name": "sender",
          "type": "address"
        }
      ],
      "name": "ERC1155InvalidSender",
      "type": "error"
    },
    {
      "inputs": [
        {
          "internalType": "address",
          "name": "operator",
          "type": "address"
        },
        {
          "internalType": "address",
          "name": "owner",
          "type": "address"
        }
      ],
      "name": "ERC1155MissingApprovalForAll",
      "type": "error"
    },
    {
      "inputs": [
        {
          "internalType": "address",
          "name": "owner",
          "type": "address"
        }
      ],
      "name": "OwnableInvalidOwner",
      "type": "error"
    },
    {
      "inputs": [
        {
          "internalType": "address",
          "name": "account",
          "type": "address"
        }
      ],
      "name": "OwnableUnauthorizedAccount",
      "type": "error"
    },
    {
      "inputs": [],
      "name": "ReentrancyGuardReentrantCall",
      "type": "error"
    },
    {
      "anonymous": false,
      "inputs": [
        {
          "indexed": true,
          "internalType": "uint256",
          "name": "id",
          "type": "uint256"
        },
        {
          "indexed": true,
          "internalType": "address",
          "name": "buyer",
          "type": "address"
        }
      ],
      "name": "AccessPurchased",
      "type": "event"
    },
    {
      "anonymous": false,
      "inputs": [
        {
          "indexed": true,
          "internalType": "address",
          "name": "account",
          "type": "address"
        },
        {
          "indexed": true,
          "internalType": "address",
          "name": "operator",
          "type": "address"
        },
        {
          "indexed": false,
          "internalType": "bool",
          "name": "approved",
          "type": "bool"
        }
      ],
      "name": "ApprovalForAll",
      "type": "event"
    },
    {
      "anonymous": false,
      "inputs": [
        {
          "indexed": true,
          "internalType": "uint256",
          "name": "id",
          "type": "uint256"
        },
        {
          "indexed": true,
          "internalType": "address",
          "name": "creator",
          "type": "address"
        },
        {
          "indexed": false,
          "internalType": "uint256",
          "name": "price",
          "type": "uint256"
        }
      ],
      "name": "AssetCreated",
      "type": "event"
    },
    {
      "anonymous": false,
      "inputs": [
        {
          "indexed": true,
          "internalType": "address",
          "name": "creator",
          "type": "address"
        },
        {
          "indexed": false,
          "internalType": "uint256",
          "name": "amount",
          "type": "uint256"
        }
      ],
      "name": "FundsWithdrawn",
      "type": "event"
    },
    {
      "anonymous": false,
      "inputs": [
        {
          "indexed": true,
          "internalType": "address",
          "name": "previousOwner",
          "type": "address"
        },
        {
          "indexed": true,
          "internalType": "address",
          "name": "newOwner",
          "type": "address"
        }
      ],
      "name": "OwnershipTransferred",
      "type": "event"
    },
    {
      "anonymous": false,
      "inputs": [
        {
          "indexed": true,
          "internalType": "address",
          "name": "operator",
          "type": "address"
        },
        {
          "indexed": true,
          "internalType": "address",
          "name": "from",
          "type": "address"
        },
        {
          "indexed": true,
          "internalType": "address",
          "name": "to",
          "type": "address"
        },
        {
          "indexed": false,
          "internalType": "uint256[]",
          "name": "ids",
          "type": "uint256[]"
        },
        {
          "indexed": false,
          "internalType": "uint256[]",
          "name": "values",
          "type": "uint256[]"
        }
      ],
      "name": "TransferBatch",
      "type": "event"
    },
    {
      "anonymous": false,
      "inputs": [
        {
          "indexed": true,
          "internalType": "address",
          "name": "operator",
          "type": "address"
        },
        {
          "indexed": true,
          "internalType": "address",
          "name": "from",
          "type": "address"
        },
        {
          "indexed": true,
          "internalType": "address",
          "name": "to",
          "type": "address"
        },
        {
          "indexed": false,
          "internalType": "uint256",
          "name": "id",
          "type": "uint256"
        },
        {
          "indexed": false,
          "internalType": "uint256",
          "name": "value",
          "type": "uint256"
        }
      ],
      "name": "TransferSingle",
      "type": "event"
    },
    {
      "anonymous": false,
      "inputs": [
        {
          "indexed": false,
          "internalType": "string",
          "name": "value",
          "type": "string"
        },
        {
          "indexed": true,
          "internalType": "uint256",
          "name": "id",
          "type": "uint256"
        }
      ],
      "name": "URI",
      "type": "event"
    },
    {
      "inputs": [],
      "name": "assetCount",
      "outputs": [
        {
          "internalType": "uint256",
          "name": "",
          "type": "uint256"
        }
      ],
      "stateMutability": "view",
      "type": "function"
    },
    {
      "inputs": [
        {
          "internalType": "uint256",
          "name": "",
          "type": "uint256"
        }
      ],
      "name": "assets",
      "outputs": [
        {
          "internalType": "uint256",
          "name": "id",
          "type": "uint256"
        },
        {
          "internalType": "uint256",
          "name": "price",
          "type": "uint256"
        },
        {
          "internalType": "string",
          "name": "metadataCid",
          "type": "string"
        },
        {
          "internalType": "string",
          "name": "encryptedKey",
          "type": "string"
        },
        {
          "internalType": "address",
          "name": "creator",
          "type": "address"
        },
        {
          "internalType": "bool",
          "name": "active",
          "type": "bool"
        }
      ],
      "stateMutability": "view",
      "type": "function"
    },
    {
      "inputs": [
        {
          "internalType": "address",
          "name": "account",
          "type": "address"
        },
        {
          "internalType": "uint256",
          "name": "id",
          "type": "uint256"
        }
      ],
      "name": "balanceOf",
      "outputs": [
        {
          "internalType": "uint256",
          "name": "",
          "type": "uint256"
        }
      ],
      "stateMutability": "view",
      "type": "function"
    },
    {
      "inputs": [
        {
          "internalType": "address[]",
          "name": "accounts",
          "type": "address[]"
        },
        {
          "internalType": "uint256[]",
          "name": "ids",
          "type": "uint256[]"
        }
      ],
      "name": "balanceOfBatch",
      "outputs": [
        {
          "internalType": "uint256[]",
          "name": "",
          "type": "uint256[]"
        }
      ],
      "stateMutability": "view",
      "type": "function"
    },
    {
      "inputs": [
        {
          "internalType": "uint256",
          "name": "_assetId",
          "type": "uint256"
        }
      ],
      "name": "buyAccess",
      "outputs": [],
      "stateMutability": "payable",
      "type": "function"
    },
    {
      "inputs": [
        {
          "internalType": "uint256",
          "name": "_price",
          "type": "uint256"
        },
        {
          "internalType": "string",
          "name": "_metadataCid",
          "type": "string"
        },
        {
          "internalType": "string",
          "name": "_encryptedKey",
          "type": "string"
        }
      ],
      "name": "createAsset",
      "outputs": [],
      "stateMutability": "nonpayable",
      "type": "function"
    },
    {
      "inputs": [
        {
          "internalType": "uint256",
          "name": "_assetId",
          "type": "uint256"
        }
      ],
      "name": "getAssetPublicInfo",
      "outputs": [
        {
          "internalType": "uint256",
          "name": "",
          "type": "uint256"
        },
        {
          "internalType": "uint256",
          "name": "",
          "type": "uint256"
        },
        {
          "internalType": "string",
          "name": "",
          "type": "string"
        },
        {
          "internalType": "address",
          "name": "",
          "type": "address"
        }
      ],
      "stateMutability": "view",
      "type": "function"
    },
    {
      "inputs": [
        {
          "internalType": "uint256",
          "name": "_assetId",
          "type": "uint256"
        }
      ],
      "name": "getEncryptedKey",
      "outputs": [
        {
          "internalType": "string",
          "name": "",
          "type": "string"
        }
      ],
      "stateMutability": "view",
      "type": "function"
    },
    {
      "inputs": [
        {
          "internalType": "address",
          "name": "account",
          "type": "address"
        },
        {
          "internalType": "address",
          "name": "operator",
          "type": "address"
        }
      ],
      "name": "isApprovedForAll",
      "outputs": [
        {
          "internalType": "bool",
          "name": "",
          "type": "bool"
        }
      ],
      "stateMutability": "view",
      "type": "function"
    },
    {
      "inputs": [],
      "name": "owner",
      "outputs": [
        {
          "internalType": "address",
          "name": "",
          "type": "address"
        }
      ],
      "stateMutability": "view",
      "type": "function"
    },
    {
      "inputs": [
        {
          "internalType": "address",
          "name": "",
          "type": "address"
        }
      ],
      "name": "pendingWithdrawals",
      "outputs": [
        {
          "internalType": "uint256",
          "name": "",
          "type": "uint256"
        }
      ],
      "stateMutability": "view",
      "type": "function"
    },
    {
      "inputs": [],
      "name": "renounceOwnership",
      "outputs": [],
      "stateMutability": "nonpayable",
      "type": "function"
    },
    {
      "inputs": [
        {
          "internalType": "address",
          "name": "from",
          "type": "address"
        },
        {
          "internalType": "address",
          "name": "to",
          "type": "address"
        },
        {
          "internalType": "uint256[]",
          "name": "ids",
          "type": "uint256[]"
        },
        {
          "internalType": "uint256[]",
          "name": "values",
          "type": "uint256[]"
        },
        {
          "internalType": "bytes",
          "name": "data",
          "type": "bytes"
        }
      ],
      "name": "safeBatchTransferFrom",
      "outputs": [],
      "stateMutability": "nonpayable",
      "type": "function"
    },
    {
      "inputs": [
        {
          "internalType": "address",
          "name": "from",
          "type": "address"
        },
        {
          "internalType": "address",
          "name": "to",
          "type": "address"
        },
        {
          "internalType": "uint256",
          "name": "id",
          "type": "uint256"
        },
        {
          "internalType": "uint256",
          "name": "value",
          "type": "uint256"
        },
        {
          "internalType": "bytes",
          "name": "data",
          "type": "bytes"
        }
      ],
      "name": "safeTransferFrom",
      "outputs": [],
      "stateMutability": "nonpayable",
      "type": "function"
    },
    {
      "inputs": [
        {
          "internalType": "address",
          "name": "operator",
          "type": "address"
        },
        {
          "internalType": "bool",
          "name": "approved",
          "type": "bool"
        }
      ],
      "name": "setApprovalForAll",
      "outputs": [],
      "stateMutability": "nonpayable",
      "type": "function"
    },
    {
      "inputs": [
        {
          "internalType": "bytes4",
          "name": "interfaceId",
          "type": "bytes4"
        }
      ],
      "name": "supportsInterface",
      "outputs": [
        {
          "internalType": "bool",
          "name": "",
          "type": "bool"
        }
      ],
      "stateMutability": "view",
      "type": "function"
    },
    {
      "inputs": [
        {
          "internalType": "address",
          "name": "newOwner",
          "type": "address"
        }
      ],
      "name": "transferOwnership",
      "outputs": [],
      "stateMutability": "nonpayable",
      "type": "function"
    },
    {
      "inputs": [
        {
          "internalType": "uint256",
          "name": "",
          "type": "uint256"
        }
      ],
      "name": "uri",
      "outputs": [
        {
          "internalType": "string",
          "name": "",
          "type": "string"
        }
      ],
      "stateMutability": "view",
      "type": "function"
    },
    {
      "inputs": [],
      "name": "withdrawFunds",
      "outputs": [],
      "stateMutability": "nonpayable",
      "type": "function"
    }
  ],
  "bytecode": "0x608060405234801561001057600080fd5b503360405180602001604052806000815250610031816100c160201b60201c565b50600073ffffffffffffffffffffffffffffffffffffffff168173ffffffffffffffffffffffffffffffffffffffff16036100a45760006040517f1e4fbdf700000000000000000000000000000000000000000000000000000000815260040161009b91906101db565b60405180910390fd5b6100b3816100d460201b60201c565b506001600481905550610518565b80600290816100d09190610446565b5050565b6000600360009054906101000a900473ffffffffffffffffffffffffffffffffffffffff16905081600360006101000a81548173ffffffffffffffffffffffffffffffffffffffff021916908373ffffffffffffffffffffffffffffffffffffffff1602179055508173ffffffffffffffffffffffffffffffffffffffff168173ffffffffffffffffffffffffffffffffffffffff167f8be0079c531659141344cd1fd0a4f28419497f9722a3daafe3b4186f6b6457e060405160405180910390a35050565b600073ffffffffffffffffffffffffffffffffffffffff82169050919050565b60006101c58261019a565b9050919050565b6101d5816101ba565b82525050565b60006020820190506101f060008301846101cc565b92915050565b600081519050919050565b7f4e487b7100000000000000000000000000000000000000000000000000000000600052604160045260246000fd5b7f4e487b7100000000000000000000000000000000000000000000000000000000600052602260045260246000fd5b6000600282049050600182168061027757607f821691505b60208210810361028a57610289610230565b5b50919050565b60008190508160005260206000209050919050565b60006020601f8301049050919050565b600082821b905092915050565b6000600883026102f27fffffffffffffffffffffffffffffffffffffffffffffffffffffffffffffffff826102b5565b6102fc86836102b5565b95508019841693508086168417925050509392505050565b6000819050919050565b6000819050919050565b600061034361033e61033984610314565b61031e565b610314565b9050919050565b6000819050919050565b61035d83610328565b6103716103698261034a565b8484546102c2565b825550505050565b600090565b610386610379565b610391818484610354565b505050565b5b818110156103b5576103aa60008261037e565b600181019050610397565b5050565b601f8211156103fa576103cb81610290565b6103d4846102a5565b810160208510156103e3578190505b6103f76103ef856102a5565b830182610396565b50505b505050565b600082821c905092915050565b600061041d600019846008026103ff565b1980831691505092915050565b6000610436838361040c565b9150826002028217905092915050565b61044f826101f6565b67ffffffffffffffff81111561046857610467610201565b5b610472825461025f565b61047d8282856103b9565b600060209050601f8311600181146104b0576000841561049e578287015190505b6104a8858261042a565b865550610510565b601f1984166104be86610290565b60005b828110156104e6578489015182556001820191506020850194506020810190506104c1565b8683101561050357848901516104ff601f89168261040c565b8355505b6001600288020188555050505b505050505050565b61381d806105276000396000f3fe6080604052600436106101135760003560e01c8063715018a6116100a0578063e985e9c511610064578063e985e9c5146103bb578063eafe7a74146103f8578063f242432a14610423578063f2fde38b1461044c578063f3f437031461047557610113565b8063715018a6146102ce5780638da5cb5b146102e5578063989b279314610310578063a22cb46514610350578063cf35bdd01461037957610113565b80632eb2c2d6116100e75780632eb2c2d6146101e65780633171cede1461020f5780634e1273f41461024c57806350a1a2641461028957806358d932c9146102a557610113565b8062fdd58e1461011857806301ffc9a7146101555780630e89341c1461019257806324600fc3146101cf575b600080fd5b34801561012457600080fd5b5061013f600480360381019061013a9190612482565b6104b2565b60405161014c91906124d1565b60405180910390f35b34801561016157600080fd5b5061017c60048036038101906101779190612544565b61050c565b604051610189919061258c565b60405180910390f35b34801561019e57600080fd5b506101b960048036038101906101b491906125a7565b6105ee565b6040516101c69190612664565b60405180910390f35b3480156101db57600080fd5b506101e4610682565b005b3480156101f257600080fd5b5061020d60048036038101906102089190612883565b61085c565b005b34801561021b57600080fd5b50610236600480360381019061023191906125a7565b610904565b6040516102439190612664565b60405180910390f35b34801561025857600080fd5b50610273600480360381019061026e9190612a15565b6109f8565b6040516102809190612b4b565b60405180910390f35b6102a3600480360381019061029e91906125a7565b610b01565b005b3480156102b157600080fd5b506102cc60048036038101906102c79190612c0e565b610e70565b005b3480156102da57600080fd5b506102e3611003565b005b3480156102f157600080fd5b506102fa611017565b6040516103079190612ca8565b60405180910390f35b34801561031c57600080fd5b50610337600480360381019061033291906125a7565b611041565b6040516103479493929190612cc3565b60405180910390f35b34801561035c57600080fd5b5061037760048036038101906103729190612d3b565b611236565b005b34801561038557600080fd5b506103a0600480360381019061039b91906125a7565b61124c565b6040516103b296959493929190612d7b565b60405180910390f35b3480156103c757600080fd5b506103e260048036038101906103dd9190612dea565b6113c5565b6040516103ef919061258c565b60405180910390f35b34801561040457600080fd5b5061040d611459565b60405161041a91906124d1565b60405180910390f35b34801561042f57600080fd5b5061044a60048036038101906104459190612e2a565b61145f565b005b34801561045857600080fd5b50610473600480360381019061046e9190612ec1565b611507565b005b34801561048157600080fd5b5061049c60048036038101906104979190612ec1565b61158d565b6040516104a991906124d1565b60405180910390f35b600080600083815260200190815260200160002060008473ffffffffffffffffffffffffffffffffffffffff1673ffffffffffffffffffffffffffffffffffffffff16815260200190815260200160002054905092915050565b60007fd9b67a26000000000000000000000000000000000000000000000000000000007bffffffffffffffffffffffffffffffffffffffffffffffffffffffff1916827bffffffffffffffffffffffffffffffffffffffffffffffffffffffff191614806105d757507f0e89341c000000000000000000000000000000000000000000000000000000007bffffffffffffffffffffffffffffffffffffffffffffffffffffffff1916827bffffffffffffffffffffffffffffffffffffffffffffffffffffffff1916145b806105e757506105e6826115a5565b5b9050919050565b6060600280546105fd90612f1d565b80601f016020809104026020016040519081016040528092919081815260200182805461062990612f1d565b80156106765780601f1061064b57610100808354040283529160200191610676565b820191906000526020600020905b81548152906001019060200180831161065957829003601f168201915b50505050509050919050565b61068a61160f565b6000600760003373ffffffffffffffffffffffffffffffffffffffff1673ffffffffffffffffffffffffffffffffffffffff16815260200190815260200160002054905060008111610711576040517f08c379a000000000000000000000000000000000000000000000000000000000815260040161070890612f9a565b60405180910390fd5b6000600760003373ffffffffffffffffffffffffffffffffffffffff1673ffffffffffffffffffffffffffffffffffffffff1681526020019081526020016000208190555060003373ffffffffffffffffffffffffffffffffffffffff168260405161077c90612feb565b60006040518083038185875af1925050503d80600081146107b9576040519150601f19603f3d011682016040523d82523d6000602084013e6107be565b606091505b5050905080610802576040517f08c379a00000000000000000000000000000000000000000000000000000000081526004016107f99061304c565b60405180910390fd5b3373ffffffffffffffffffffffffffffffffffffffff167feaff4b37086828766ad3268786972c0cd24259d4c87a80f9d3963a3c3d999b0d8360405161084891906124d1565b60405180910390a2505061085a611655565b565b600061086661165f565b90508073ffffffffffffffffffffffffffffffffffffffff168673ffffffffffffffffffffffffffffffffffffffff16141580156108ab57506108a986826113c5565b155b156108ef5780866040517fe237d9220000000000000000000000000000000000000000000000000000000081526004016108e692919061306c565b60405180910390fd5b6108fc8686868686611667565b505050505050565b6060600061091233846104b2565b11610952576040517f08c379a000000000000000000000000000000000000000000000000000000000815260040161094990613107565b60405180910390fd5b60066000838152602001908152602001600020600301805461097390612f1d565b80601f016020809104026020016040519081016040528092919081815260200182805461099f90612f1d565b80156109ec5780601f106109c1576101008083540402835291602001916109ec565b820191906000526020600020905b8154815290600101906020018083116109cf57829003601f168201915b50505050509050919050565b60608151835114610a4457815183516040517f5b059991000000000000000000000000000000000000000000000000000000008152600401610a3b929190613127565b60405180910390fd5b6000835167ffffffffffffffff811115610a6157610a6061268b565b5b604051908082528060200260200182016040528015610a8f5781602001602082028036833780820191505090505b50905060005b8451811015610af657610acc610ab4828761175f90919063ffffffff16565b610ac7838761177390919063ffffffff16565b6104b2565b828281518110610adf57610ade613150565b5b602002602001018181525050806001019050610a95565b508091505092915050565b610b0961160f565b6000600660008381526020019081526020016000206040518060c00160405290816000820154815260200160018201548152602001600282018054610b4d90612f1d565b80601f0160208091040260200160405190810160405280929190818152602001828054610b7990612f1d565b8015610bc65780601f10610b9b57610100808354040283529160200191610bc6565b820191906000526020600020905b815481529060010190602001808311610ba957829003601f168201915b50505050508152602001600382018054610bdf90612f1d565b80601f0160208091040260200160405190810160405280929190818152602001828054610c0b90612f1d565b8015610c585780601f10610c2d57610100808354040283529160200191610c58565b820191906000526020600020905b815481529060010190602001808311610c3b57829003601f168201915b505050505081526020016004820160009054906101000a900473ffffffffffffffffffffffffffffffffffffffff1673ffffffffffffffffffffffffffffffffffffffff1673ffffffffffffffffffffffffffffffffffffffff1681526020016004820160149054906101000a900460ff16151515158152505090508060a00151610d18576040517f08c379a0000000000000000000000000000000000000000000000000000000008152600401610d0f906131f1565b60405180910390fd5b80602001513414610d5e576040517f08c379a0000000000000000000000000000000000000000000000000000000008152600401610d559061325d565b60405180910390fd5b6000610d6a33846104b2565b14610daa576040517f08c379a0000000000000000000000000000000000000000000000000000000008152600401610da1906132c9565b60405180910390fd5b3460076000836080015173ffffffffffffffffffffffffffffffffffffffff1673ffffffffffffffffffffffffffffffffffffffff1681526020019081526020016000206000828254610dfd9190613318565b92505081905550610e203383600160405180602001604052806000815250611787565b3373ffffffffffffffffffffffffffffffffffffffff16827f9d3165becc99baec301813b1612049d03855703556b2fc11d56004c5cf09f5f360405160405180910390a350610e6d611655565b50565b60056000815480929190610e839061334c565b91905055506040518060c0016040528060055481526020018481526020018381526020018281526020013373ffffffffffffffffffffffffffffffffffffffff1681526020016001151581525060066000600554815260200190815260200160002060008201518160000155602082015181600101556040820151816002019081610f0e9190613540565b506060820151816003019081610f249190613540565b5060808201518160040160006101000a81548173ffffffffffffffffffffffffffffffffffffffff021916908373ffffffffffffffffffffffffffffffffffffffff16021790555060a08201518160040160146101000a81548160ff021916908315150217905550905050610fad33600554600160405180602001604052806000815250611787565b3373ffffffffffffffffffffffffffffffffffffffff166005547ff54837c9ba235cb37cd834add22a366a600686d55bc588af257f7928dacb198b85604051610ff691906124d1565b60405180910390a3505050565b61100b611820565b61101560006118a7565b565b6000600360009054906101000a900473ffffffffffffffffffffffffffffffffffffffff16905090565b6000806060600080600660008781526020019081526020016000206040518060c0016040529081600082015481526020016001820154815260200160028201805461108b90612f1d565b80601f01602080910402602001604051908101604052809291908181526020018280546110b790612f1d565b80156111045780601f106110d957610100808354040283529160200191611104565b820191906000526020600020905b8154815290600101906020018083116110e757829003601f168201915b5050505050815260200160038201805461111d90612f1d565b80601f016020809104026020016040519081016040528092919081815260200182805461114990612f1d565b80156111965780601f1061116b57610100808354040283529160200191611196565b820191906000526020600020905b81548152906001019060200180831161117957829003601f168201915b505050505081526020016004820160009054906101000a900473ffffffffffffffffffffffffffffffffffffffff1673ffffffffffffffffffffffffffffffffffffffff1673ffffffffffffffffffffffffffffffffffffffff1681526020016004820160149054906101000a900460ff161515151581525050905080600001518160200151826040015183608001519450945094509450509193509193565b61124861124161165f565b838361196d565b5050565b600660205280600052604060002060009150905080600001549080600101549080600201805461127b90612f1d565b80601f01602080910402602001604051908101604052809291908181526020018280546112a790612f1d565b80156112f45780601f106112c9576101008083540402835291602001916112f4565b820191906000526020600020905b8154815290600101906020018083116112d757829003601f168201915b50505050509080600301805461130990612f1d565b80601f016020809104026020016040519081016040528092919081815260200182805461133590612f1d565b80156113825780601f1061135757610100808354040283529160200191611382565b820191906000526020600020905b81548152906001019060200180831161136557829003601f168201915b5050505050908060040160009054906101000a900473ffffffffffffffffffffffffffffffffffffffff16908060040160149054906101000a900460ff16905086565b6000600160008473ffffffffffffffffffffffffffffffffffffffff1673ffffffffffffffffffffffffffffffffffffffff16815260200190815260200160002060008373ffffffffffffffffffffffffffffffffffffffff1673ffffffffffffffffffffffffffffffffffffffff16815260200190815260200160002060009054906101000a900460ff16905092915050565b60055481565b600061146961165f565b90508073ffffffffffffffffffffffffffffffffffffffff168673ffffffffffffffffffffffffffffffffffffffff16141580156114ae57506114ac86826113c5565b155b156114f25780866040517fe237d9220000000000000000000000000000000000000000000000000000000081526004016114e992919061306c565b60405180910390fd5b6114ff8686868686611add565b505050505050565b61150f611820565b600073ffffffffffffffffffffffffffffffffffffffff168173ffffffffffffffffffffffffffffffffffffffff16036115815760006040517f1e4fbdf70000000000000000000000000000000000000000000000000000000081526004016115789190612ca8565b60405180910390fd5b61158a816118a7565b50565b60076020528060005260406000206000915090505481565b60007f01ffc9a7000000000000000000000000000000000000000000000000000000007bffffffffffffffffffffffffffffffffffffffffffffffffffffffff1916827bffffffffffffffffffffffffffffffffffffffffffffffffffffffff1916149050919050565b60026004540361164b576040517f3ee5aeb500000000000000000000000000000000000000000000000000000000815260040160405180910390fd5b6002600481905550565b6001600481905550565b600033905090565b600073ffffffffffffffffffffffffffffffffffffffff168473ffffffffffffffffffffffffffffffffffffffff16036116d95760006040517f57f447ce0000000000000000000000000000000000000000000000000000000081526004016116d09190612ca8565b60405180910390fd5b600073ffffffffffffffffffffffffffffffffffffffff168573ffffffffffffffffffffffffffffffffffffffff160361174b5760006040517f01a835140000000000000000000000000000000000000000000000000000000081526004016117429190612ca8565b60405180910390fd5b6117588585858585611be8565b5050505050565b600060208202602084010151905092915050565b600060208202602084010151905092915050565b600073ffffffffffffffffffffffffffffffffffffffff168473ffffffffffffffffffffffffffffffffffffffff16036117f95760006040517f57f447ce0000000000000000000000000000000000000000000000000000000081526004016117f09190612ca8565b60405180910390fd5b6000806118068585611c9a565b91509150611818600087848487611be8565b505050505050565b61182861165f565b73ffffffffffffffffffffffffffffffffffffffff16611846611017565b73ffffffffffffffffffffffffffffffffffffffff16146118a55761186961165f565b6040517f118cdaa700000000000000000000000000000000000000000000000000000000815260040161189c9190612ca8565b60405180910390fd5b565b6000600360009054906101000a900473ffffffffffffffffffffffffffffffffffffffff16905081600360006101000a81548173ffffffffffffffffffffffffffffffffffffffff021916908373ffffffffffffffffffffffffffffffffffffffff1602179055508173ffffffffffffffffffffffffffffffffffffffff168173ffffffffffffffffffffffffffffffffffffffff167f8be0079c531659141344cd1fd0a4f28419497f9722a3daafe3b4186f6b6457e060405160405180910390a35050565b600073ffffffffffffffffffffffffffffffffffffffff168273ffffffffffffffffffffffffffffffffffffffff16036119df5760006040517fced3e1000000000000000000000000000000000000000000000000000000000081526004016119d69190612ca8565b60405180910390fd5b80600160008573ffffffffffffffffffffffffffffffffffffffff1673ffffffffffffffffffffffffffffffffffffffff16815260200190815260200160002060008473ffffffffffffffffffffffffffffffffffffffff1673ffffffffffffffffffffffffffffffffffffffff16815260200190815260200160002060006101000a81548160ff0219169083151502179055508173ffffffffffffffffffffffffffffffffffffffff168373ffffffffffffffffffffffffffffffffffffffff167f17307eab39ab6107e8899845ad3d59bd9653f200f220920489ca2b5937696c3183604051611ad0919061258c565b60405180910390a3505050565b600073ffffffffffffffffffffffffffffffffffffffff168473ffffffffffffffffffffffffffffffffffffffff1603611b4f5760006040517f57f447ce000000000000000000000000000000000000000000000000000000008152600401611b469190612ca8565b60405180910390fd5b600073ffffffffffffffffffffffffffffffffffffffff168573ffffffffffffffffffffffffffffffffffffffff1603611bc15760006040517f01a83514000000000000000000000000000000000000000000000000000000008152600401611bb89190612ca8565b60405180910390fd5b600080611bce8585611c9a565b91509150611bdf8787848487611be8565b50505050505050565b611bf485858585611cca565b600073ffffffffffffffffffffffffffffffffffffffff168473ffffffffffffffffffffffffffffffffffffffff1614611c93576000611c3261165f565b90506001845103611c82576000611c5360008661177390919063ffffffff16565b90506000611c6b60008661177390919063ffffffff16565b9050611c7b838989858589612072565b5050611c91565b611c90818787878787612226565b5b505b5050505050565b60608060405191506001825283602083015260408201905060018152826020820152604081016040529250929050565b8051825114611d1457815181516040517f5b059991000000000000000000000000000000000000000000000000000000008152600401611d0b929190613127565b60405180910390fd5b6000611d1e61165f565b905060005b8351811015611f2d576000611d41828661177390919063ffffffff16565b90506000611d58838661177390919063ffffffff16565b9050600073ffffffffffffffffffffffffffffffffffffffff168873ffffffffffffffffffffffffffffffffffffffff1614611e8557600080600084815260200190815260200160002060008a73ffffffffffffffffffffffffffffffffffffffff1673ffffffffffffffffffffffffffffffffffffffff16815260200190815260200160002054905081811015611e2d57888183856040517f03dee4c5000000000000000000000000000000000000000000000000000000008152600401611e249493929190613612565b60405180910390fd5b81810360008085815260200190815260200160002060008b73ffffffffffffffffffffffffffffffffffffffff1673ffffffffffffffffffffffffffffffffffffffff16815260200190815260200160002081905550505b600073ffffffffffffffffffffffffffffffffffffffff168773ffffffffffffffffffffffffffffffffffffffff1614611f20578060008084815260200190815260200160002060008973ffffffffffffffffffffffffffffffffffffffff1673ffffffffffffffffffffffffffffffffffffffff1681526020019081526020016000206000828254611f189190613318565b925050819055505b5050806001019050611d23565b506001835103611fec576000611f4d60008561177390919063ffffffff16565b90506000611f6560008561177390919063ffffffff16565b90508573ffffffffffffffffffffffffffffffffffffffff168773ffffffffffffffffffffffffffffffffffffffff168473ffffffffffffffffffffffffffffffffffffffff167fc3d58168c5ae7397731d063d5bbf3d657854427343f4c083240f7aacaa2d0f628585604051611fdd929190613127565b60405180910390a4505061206b565b8373ffffffffffffffffffffffffffffffffffffffff168573ffffffffffffffffffffffffffffffffffffffff168273ffffffffffffffffffffffffffffffffffffffff167f4a39dc06d4c0dbc64b70af90fd698a233a518aa5d07e595d983b8c0526c8f7fb8686604051612062929190613657565b60405180910390a45b5050505050565b60008473ffffffffffffffffffffffffffffffffffffffff163b111561221e578373ffffffffffffffffffffffffffffffffffffffff1663f23a6e6187878686866040518663ffffffff1660e01b81526004016120d39594939291906136e3565b6020604051808303816000875af192505050801561210f57506040513d601f19601f8201168201806040525081019061210c9190613752565b60015b612193573d806000811461213f576040519150601f19603f3d011682016040523d82523d6000602084013e612144565b606091505b50600081510361218b57846040517f57f447ce0000000000000000000000000000000000000000000000000000000081526004016121829190612ca8565b60405180910390fd5b805160208201fd5b63f23a6e6160e01b7bffffffffffffffffffffffffffffffffffffffffffffffffffffffff1916817bffffffffffffffffffffffffffffffffffffffffffffffffffffffff19161461221c57846040517f57f447ce0000000000000000000000000000000000000000000000000000000081526004016122139190612ca8565b60405180910390fd5b505b505050505050565b60008473ffffffffffffffffffffffffffffffffffffffff163b11156123d2578373ffffffffffffffffffffffffffffffffffffffff1663bc197c8187878686866040518663ffffffff1660e01b815260040161228795949392919061377f565b6020604051808303816000875af19250505080156122c357506040513d601f19601f820116820180604052508101906122c09190613752565b60015b612347573d80600081146122f3576040519150601f19603f3d011682016040523d82523d6000602084013e6122f8565b606091505b50600081510361233f57846040517f57f447ce0000000000000000000000000000000000000000000000000000000081526004016123369190612ca8565b60405180910390fd5b805160208201fd5b63bc197c8160e01b7bffffffffffffffffffffffffffffffffffffffffffffffffffffffff1916817bffffffffffffffffffffffffffffffffffffffffffffffffffffffff1916146123d057846040517f57f447ce0000000000000000000000000000000000000000000000000000000081526004016123c79190612ca8565b60405180910390fd5b505b505050505050565b6000604051905090565b600080fd5b600080fd5b600073ffffffffffffffffffffffffffffffffffffffff82169050919050565b6000612419826123ee565b9050919050565b6124298161240e565b811461243457600080fd5b50565b60008135905061244681612420565b92915050565b6000819050919050565b61245f8161244c565b811461246a57600080fd5b50565b60008135905061247c81612456565b92915050565b60008060408385031215612499576124986123e4565b5b60006124a785828601612437565b92505060206124b88582860161246d565b9150509250929050565b6124cb8161244c565b82525050565b60006020820190506124e660008301846124c2565b92915050565b60007fffffffff0000000000000000000000000000000000000000000000000000000082169050919050565b612521816124ec565b811461252c57600080fd5b50565b60008135905061253e81612518565b92915050565b60006020828403121561255a576125596123e4565b5b60006125688482850161252f565b91505092915050565b60008115159050919050565b61258681612571565b82525050565b60006020820190506125a1600083018461257d565b92915050565b6000602082840312156125bd576125bc6123e4565b5b60006125cb8482850161246d565b91505092915050565b600081519050919050565b600082825260208201905092915050565b60005b8381101561260e5780820151818401526020810190506125f3565b60008484015250505050565b6000601f19601f8301169050919050565b6000612636826125d4565b61264081856125df565b93506126508185602086016125f0565b6126598161261a565b840191505092915050565b6000602082019050818103600083015261267e818461262b565b905092915050565b600080fd5b7f4e487b7100000000000000000000000000000000000000000000000000000000600052604160045260246000fd5b6126c38261261a565b810181811067ffffffffffffffff821117156126e2576126e161268b565b5b80604052505050565b60006126f56123da565b905061270182826126ba565b919050565b600067ffffffffffffffff8211156127215761272061268b565b5b602082029050602081019050919050565b600080fd5b600061274a61274584612706565b6126eb565b9050808382526020820190506020840283018581111561276d5761276c612732565b5b835b818110156127965780612782888261246d565b84526020840193505060208101905061276f565b5050509392505050565b600082601f8301126127b5576127b4612686565b5b81356127c5848260208601612737565b91505092915050565b600080fd5b600067ffffffffffffffff8211156127ee576127ed61268b565b5b6127f78261261a565b9050602081019050919050565b82818337600083830152505050565b6000612826612821846127d3565b6126eb565b905082815260208101848484011115612842576128416127ce565b5b61284d848285612804565b509392505050565b600082601f83011261286a57612869612686565b5b813561287a848260208601612813565b91505092915050565b600080600080600060a0868803121561289f5761289e6123e4565b5b60006128ad88828901612437565b95505060206128be88828901612437565b945050604086013567ffffffffffffffff8111156128df576128de6123e9565b5b6128eb888289016127a0565b935050606086013567ffffffffffffffff81111561290c5761290b6123e9565b5b612918888289016127a0565b925050608086013567ffffffffffffffff811115612939576129386123e9565b5b61294588828901612855565b9150509295509295909350565b600067ffffffffffffffff82111561296d5761296c61268b565b5b602082029050602081019050919050565b600061299161298c84612952565b6126eb565b905080838252602082019050602084028301858111156129b4576129b3612732565b5b835b818110156129dd57806129c98882612437565b8452602084019350506020810190506129b6565b5050509392505050565b600082601f8301126129fc576129fb612686565b5b8135612a0c84826020860161297e565b91505092915050565b60008060408385031215612a2c57612a2b6123e4565b5b600083013567ffffffffffffffff811115612a4a57612a496123e9565b5b612a56858286016129e7565b925050602083013567ffffffffffffffff811115612a7757612a766123e9565b5b612a83858286016127a0565b9150509250929050565b600081519050919050565b600082825260208201905092915050565b6000819050602082019050919050565b612ac28161244c565b82525050565b6000612ad48383612ab9565b60208301905092915050565b6000602082019050919050565b6000612af882612a8d565b612b028185612a98565b9350612b0d83612aa9565b8060005b83811015612b3e578151612b258882612ac8565b9750612b3083612ae0565b925050600181019050612b11565b5085935050505092915050565b60006020820190508181036000830152612b658184612aed565b905092915050565b600067ffffffffffffffff821115612b8857612b8761268b565b5b612b918261261a565b9050602081019050919050565b6000612bb1612bac84612b6d565b6126eb565b905082815260208101848484011115612bcd57612bcc6127ce565b5b612bd8848285612804565b509392505050565b600082601f830112612bf557612bf4612686565b5b8135612c05848260208601612b9e565b91505092915050565b600080600060608486031215612c2757612c266123e4565b5b6000612c358682870161246d565b935050602084013567ffffffffffffffff811115612c5657612c556123e9565b5b612c6286828701612be0565b925050604084013567ffffffffffffffff811115612c8357612c826123e9565b5b612c8f86828701612be0565b9150509250925092565b612ca28161240e565b82525050565b6000602082019050612cbd6000830184612c99565b92915050565b6000608082019050612cd860008301876124c2565b612ce560208301866124c2565b8181036040830152612cf7818561262b565b9050612d066060830184612c99565b95945050505050565b612d1881612571565b8114612d2357600080fd5b50565b600081359050612d3581612d0f565b92915050565b60008060408385031215612d5257612d516123e4565b5b6000612d6085828601612437565b9250506020612d7185828601612d26565b9150509250929050565b600060c082019050612d9060008301896124c2565b612d9d60208301886124c2565b8181036040830152612daf818761262b565b90508181036060830152612dc3818661262b565b9050612dd26080830185612c99565b612ddf60a083018461257d565b979650505050505050565b60008060408385031215612e0157612e006123e4565b5b6000612e0f85828601612437565b9250506020612e2085828601612437565b9150509250929050565b600080600080600060a08688031215612e4657612e456123e4565b5b6000612e5488828901612437565b9550506020612e6588828901612437565b9450506040612e768882890161246d565b9350506060612e878882890161246d565b925050608086013567ffffffffffffffff811115612ea857612ea76123e9565b5b612eb488828901612855565b9150509295509295909350565b600060208284031215612ed757612ed66123e4565b5b6000612ee584828501612437565b91505092915050565b7f4e487b7100000000000000000000000000000000000000000000000000000000600052602260045260246000fd5b60006002820490506001821680612f3557607f821691505b602082108103612f4857612f47612eee565b5b50919050565b7f4e6f2066756e647320746f207769746864726177000000000000000000000000600082015250565b6000612f846014836125df565b9150612f8f82612f4e565b602082019050919050565b60006020820190508181036000830152612fb381612f77565b9050919050565b600081905092915050565b50565b6000612fd5600083612fba565b9150612fe082612fc5565b600082019050919050565b6000612ff682612fc8565b9150819050919050565b7f4661696c656420746f2073656e64204574686572000000000000000000000000600082015250565b60006130366014836125df565b915061304182613000565b602082019050919050565b6000602082019050818103600083015261306581613029565b9050919050565b60006040820190506130816000830185612c99565b61308e6020830184612c99565b9392505050565b7f4e6f7420617574686f72697a65643a205075726368617365204e46542066697260008201527f7374000000000000000000000000000000000000000000000000000000000000602082015250565b60006130f16022836125df565b91506130fc82613095565b604082019050919050565b60006020820190508181036000830152613120816130e4565b9050919050565b600060408201905061313c60008301856124c2565b61314960208301846124c2565b9392505050565b7f4e487b7100000000000000000000000000000000000000000000000000000000600052603260045260246000fd5b7f417373657420646f6573206e6f74206578697374206f7220697320696e61637460008201527f6976650000000000000000000000000000000000000000000000000000000000602082015250565b60006131db6023836125df565b91506131e68261317f565b604082019050919050565b6000602082019050818103600083015261320a816131ce565b9050919050565b7f496e636f72726563742045544820616d6f756e742073656e7400000000000000600082015250565b60006132476019836125df565b915061325282613211565b602082019050919050565b600060208201905081810360008301526132768161323a565b9050919050565b7f596f7520616c7265616479206861766520616363657373000000000000000000600082015250565b60006132b36017836125df565b91506132be8261327d565b602082019050919050565b600060208201905081810360008301526132e2816132a6565b9050919050565b7f4e487b7100000000000000000000000000000000000000000000000000000000600052601160045260246000fd5b60006133238261244c565b915061332e8361244c565b9250828201905080821115613346576133456132e9565b5b92915050565b60006133578261244c565b91507fffffffffffffffffffffffffffffffffffffffffffffffffffffffffffffffff8203613389576133886132e9565b5b600182019050919050565b60008190508160005260206000209050919050565b60006020601f8301049050919050565b600082821b905092915050565b6000600883026133f67fffffffffffffffffffffffffffffffffffffffffffffffffffffffffffffffff826133b9565b61340086836133b9565b95508019841693508086168417925050509392505050565b6000819050919050565b600061343d6134386134338461244c565b613418565b61244c565b9050919050565b6000819050919050565b61345783613422565b61346b61346382613444565b8484546133c6565b825550505050565b600090565b613480613473565b61348b81848461344e565b505050565b5b818110156134af576134a4600082613478565b600181019050613491565b5050565b601f8211156134f4576134c581613394565b6134ce846133a9565b810160208510156134dd578190505b6134f16134e9856133a9565b830182613490565b50505b505050565b600082821c905092915050565b6000613517600019846008026134f9565b1980831691505092915050565b60006135308383613506565b9150826002028217905092915050565b613549826125d4565b67ffffffffffffffff8111156135625761356161268b565b5b61356c8254612f1d565b6135778282856134b3565b600060209050601f8311600181146135aa5760008415613598578287015190505b6135a28582613524565b86555061360a565b601f1984166135b886613394565b60005b828110156135e0578489015182556001820191506020850194506020810190506135bb565b868310156135fd57848901516135f9601f891682613506565b8355505b6001600288020188555050505b505050505050565b60006080820190506136276000830187612c99565b61363460208301866124c2565b61364160408301856124c2565b61364e60608301846124c2565b95945050505050565b600060408201905081810360008301526136718185612aed565b905081810360208301526136858184612aed565b90509392505050565b600081519050919050565b600082825260208201905092915050565b60006136b58261368e565b6136bf8185613699565b93506136cf8185602086016125f0565b6136d88161261a565b840191505092915050565b600060a0820190506136f86000830188612c99565b6137056020830187612c99565b61371260408301866124c2565b61371f60608301856124c2565b818103608083015261373181846136aa565b90509695505050505050565b60008151905061374c81612518565b92915050565b600060208284031215613768576137676123e4565b5b60006137768482850161373d565b91505092915050565b600060a0820190506137946000830188612c99565b6137a16020830187612c99565b81810360408301526137b38186612aed565b905081810360608301526137c78185612aed565b905081810360808301526137db81846136aa565b9050969550505050505056fea2646970667358221220704c80cb14edef1d2e86cff8f19079884fe7f8880ed39913ca60e77f81fb63fa64736f6c634300081c0033",
  "linkReferences": {},
  "deployedLinkReferences": {}
}